:100000000C9468000C9490000C9490000C94900058
:100010000C9490000C9490000C9490000C94900020
:100020000C9490000C9490000C9490000C94900010
:100030000C9490000C9490000C9490000C94900000
:100040000C9490040C9490000C945E040C9438046E
:100050000C9490000C9490000C9490000C949000E0
:100060000C9490000C949000005EBCE2613FDD8334
:10007000C29C7E20A3FD1F41009D23BE46DB65F888
:100080008C11AF32CA57E974000000002500280027
:100090002B0000000000240027002A0000000000C0
:1000A00023002600290004040404040404040202BA
:1000B00002020202030303030303010204081020E7
:1000C0004080010204081020010204081020DA0414
:1000D00011241FBECFEFD8E0DEBFCDBF11E0A0E0FE
:1000E000B1E0E6E4F0E102C005900D92A232B10762
:1000F000D9F721E0A2E2B1E001C01D92A23FB20710
:10010000E1F710E0C8E6D0E004C02197FE010E94AC
:100110001608C736D107C9F70E9479050C94210843
:100120000C940000CF92DF92EF92FF920F931F93F7
:10013000CF93DF936C017A018B01C0E0D0E0CE1544
:10014000DF0581F0D8016D918D01D601ED91FC9113
:100150000190F081E02DC6010995892B11F02196BF
:10016000EECF7E01C701DF91CF911F910F91FF90DC
:10017000EF90DF90CF900895089580E090E008958B
:10018000FC01538D448D252F30E0842F90E0821B9D
:10019000930B541710F0CF96089501970895FC0122
:1001A000918D828D981761F0828DDF01A80FB11DAE
:1001B0005D968C91928D9F5F9F73928F90E00895D2
:1001C0008FEF9FEF0895FC01918D828D981731F08C
:1001D000828DE80FF11D858D90E008958FEF9FEFE0
:1001E0000895FC01918D228D892F90E0805C9F4FB6
:1001F000821B91098F739927089583E391E00E94F0
:10020000F10021E0892B09F420E0822F0895FC0100
:10021000848DDF01A80FB11DA35ABF4F2C91848D8F
:1002200090E001968F739927848FA689B7892C93C4
:10023000A089B1898C91837080648C93938D848D17
:10024000981306C00288F389E02D80818F7D80831A
:100250000895EF92FF920F931F93CF93DF93EC01DA
:1002600081E0888F9B8D8C8D981305C0E889F98972
:10027000808185FD26C0F62E0B8D10E00F5F1F4F8D
:100280000F731127E02E8C8DE8120CC00FB607FCFF
:10029000FACFE889F989808185FFF5CFCE010E94E8
:1002A0000701F1CF8B8DFE01E80FF11DE35AFF4FDF
:1002B000F0829FB7F8940B8FEA89FB898081806276
:1002C0000AC09FB7F894EE89FF896083E889F989AD
:1002D00080818370806480839FBF81E090E0DF91A4
:1002E000CF911F910F91FF90EF900895CF93DF93DF
:1002F000EC01888D8823C9F0EA89FB89808185FD1E
:1003000005C0A889B9898C9186FD0FC00FB607FC7E
:10031000F5CF808185FFF2CFA889B9898C9185FFBF
:10032000EDCFCE010E940701E7CFDF91CF91089575
:1003300080E090E0892B29F00E94FD0081110C944F
:10034000000008953FB7F894809123019091240113
:10035000A0912501B091260126B5A89B05C02F3F8D
:1003600019F00196A11DB11D3FBFBA2FA92F982FDB
:100370008827820F911DA11DB11DBC01CD0142E056
:10038000660F771F881F991F4A95D1F708958F929E
:100390009F92AF92BF92CF92DF92EF92FF926B014A
:1003A0007C010E94A2014B015C01C114D104E10453
:1003B000F104F1F00E94A201DC01CB018819990936
:1003C000AA09BB09883E9340A105B10570F321E05D
:1003D000C21AD108E108F10888EE880E83E0981E61
:1003E000A11CB11CC114D104E104F10419F7DDCF43
:1003F000FF90EF90DF90CF90BF90AF909F908F9045
:100400000895DC0180E0615098F02D91982F92279B
:10041000E92FEF70F0E0E859FF4F249192959F701B
:10042000E92FF0E0E858FF4FE491822F8E27EBCFC1
:100430000895FC0190810180F281E02DF894818182
:10044000892B81832281892F809528232283A7E00D
:10045000B0E01197F1F7218182238183A3E2B0E01C
:100460001197F1F780817894EFECF0E03197F1F794
:10047000982381E009F480E00895FC0190810180D7
:10048000F281E02D892F809560FF12C0F8942281BF
:10049000822382838181892B8183A3E2B0E011973B
:1004A000F1F78281982B9283789487ED90E011C0C8
:1004B000F8942281822382838181892B8183AFEF0B
:1004C000B0E01197F1F78281982B928378948FE0B6
:1004D00090E00197F1F70895DF92EF92FF920F936A
:1004E0001F93CF93DF93EC01D62EE42E08E010E0AB
:1004F000FF24F39461E08D2D8F2109F460E0CE019B
:100500000E943D02FF0C01501109A1F7E11010C03B
:10051000F894E981FA81918188818095892381838A
:10052000E981FA81928188818095892382837894F8
:10053000DF91CF911F910F91FF90EF90DF90089581
:10054000EF92FF920F931F93CF93DF938C017B0168
:1005500040E065E50E946C02E70188E0E80EF11CCE
:10056000699140E0C8010E946C02CE15DF05C1F719
:10057000DF91CF911F910F91FF90EF900895DC01D3
:100580002C911196ED91FC911297F8948181922F04
:1005900090958923818378948DE743E050E08150E2
:1005A00021F1DA011197F1F730813223C1F3F89488
:1005B0008281892382838181822B81837894ABE736
:1005C000B7E01197F1F7F89481819823918383E143
:1005D00091E00197F1F78081282381E009F080E024
:1005E0007894E3E6F6E03197F1F70895AF92BF9281
:1005F000CF92DF92EF92FF920F931F93CF93DF93EF
:100600008B01BC018091D6019091D7010E94A0027C
:1006100040E06EEB8091D6019091D7010E946C0270
:10062000E801680189E0C80ED11CA090D601B09005
:10063000D70188E0E82EF12C10E001E0C5010E940E
:1006400019028111102B000F81E0E81AF108B1F7AF
:100650001993CC16DD0649F78091D6019091D70108
:100660000E94BF0291E0813009F090E0892FDF9174
:10067000CF911F910F91FF90EF90DF90CF90BF909F
:10068000AF9008950F931F93CF93DF93CDB7DEB74D
:1006900029970FB6F894DEBF0FBECDBF8C018091B5
:1006A000D6019091D7010E94BF02882309F1BE01B3
:1006B0006F5F7F4FC8010E94F6028823C9F068E08F
:1006C000CE0101960E9401029985891311C08D8186
:1006D0008F3361F020F48F3159F489E00CC08F35ED
:1006E00019F08F3739F004C08BE005C08AE003C0F1
:1006F00080E001C08CE029960FB6F894DEBF0FBEF3
:10070000CDBFDF91CF911F910F9108950F931F934C
:10071000CF93DF9300D000D0CDB7DEB769837A8363
:100720008B839C838A0144E050E066E071E083E3C0
:1007300091E00E94920044E050E0BE016F5F7F4F65
:1007400083E391E00E94920048E050E0B80183E327
:1007500091E00E9492000F900F900F900F90DF9108
:10076000CF911F910F910895BF92CF92DF92EF9298
:10077000FF920F931F93CF93DF93EC016B018D8555
:10078000811105C0CE010E94BF02811105C01B86E8
:100790001D861C8680E060C040E060EFCE010E94B4
:1007A0006C0201E0E12CB12C11E0CE010E94190293
:1007B000F82ECE010E94190291E0F91203C0813097
:1007C000B1F434C02E2D30E0F8121BC08B85181701
:1007D00038F4FE01E20FF31F8381802341F402C04D
:1007E000811729F0F12C193058F41C8709C0FE013B
:1007F000EE0DF11D8381802B8383FF24F39409C0C8
:10080000B12EFE01E20FF31F9381802F8095892383
:1008100083836F2DCE010E943D021F5F000F11F4F4
:10082000E39401E087E08E1508F0BFCF113408F49F
:10083000AECFBB86B11002C081E08D878B8188234B
:1008400009F4A5CFDE011396F6012B968D918193C5
:10085000CA17DB07D9F781E0DF91CF911F910F9184
:10086000FF90EF90DF90CF90BF9008950E941C08FA
:100870001F920F920FB60F9211242F933F934F9315
:100880005F936F937F938F939F93AF93BF93EF93F8
:10089000FF9383E391E00E940701FF91EF91BF91E5
:1008A000AF919F918F917F916F915F914F913F9108
:1008B0002F910F900FBE0F901F9018951F920F92BF
:1008C0000FB60F9211242F938F939F93EF93FF9363
:1008D000E0914301F09144018081E0914901F09160
:1008E0004A0182FD12C0908180914C018F5F8F730D
:1008F00020914D01821751F0E0914C01F0E0ED5C48
:10090000FE4F958F80934C0101C08081FF91EF9144
:100910009F918F912F910F900FBE0F901F90189560
:100920001F920F920FB60F9211242F933F938F9324
:100930009F93AF93BF938091270190912801A0913D
:100940002901B0912A013091220123E0230F2D3794
:1009500020F40196A11DB11D05C026E8230F0296C3
:10096000A11DB11D2093220180932701909328019E
:10097000A0932901B0932A01809123019091240131
:10098000A0912501B09126010196A11DB11D809372
:10099000230190932401A0932501B0932601BF91D8
:1009A000AF919F918F913F912F910F900FBE0F901C
:1009B0001F901895CF93DF93109236011092350156
:1009C00088EE93E0A0E0B0E0809337019093380187
:1009D000A0933901B0933A0184E191E090933401FE
:1009E0008093330185EC90E09093400180933F0128
:1009F00084EC90E0909342018093410180EC90E080
:100A0000909344018093430181EC90E090934601E0
:100A10008093450182EC90E09093480180934701D8
:100A200086EC90E090934A018093490110924C012A
:100A300010924D0110924E0110924F01EEEBF0E03A
:100A40002491EAEAF0E084918823C1F090E0880FD5
:100A5000991FFC01EE56FF4FC591D491FC01E85758
:100A6000FF4FA591B4919FB7F8948881E22FE0954C
:100A70008E2388838C91E823EC939FBFEEEBF0E00C
:100A8000E491E093E401EAEAF0E0E491F0E0EE0FB3
:100A9000FF1FE456FF4F859194919093E601809358
:100AA000E5011092EF011092F1011092F001EFEECA
:100AB000F1E0129281E0E73EF807D9F784EE91E089
:100AC0009093D7018093D6011092D4011092D50152
:100AD0001092D00189E08093D10181E08093D2010E
:100AE0008093D3011092E3011092E201DF91CF9144
:100AF0000895CF93DF93CDB7DEB761970FB6F89423
:100B0000DEBF0FBECDBF789484B5826084BD84B54E
:100B1000816084BD85B5826085BD85B5816085BDF8
:100B200080916E00816080936E00109281008091B0
:100B30008100826080938100809181008160809338
:100B40008100809180008160809380008091B1005D
:100B500084608093B1008091B00081608093B00088
:100B600080917A00846080937A0080917A0082601C
:100B700080937A0080917A00816080937A008091DE
:100B80007A00806880937A001092C100E09143015E
:100B9000F091440182E08083E0913F01F0914001B7
:100BA0001082E0914101F091420183E38083109231
:100BB0004B01E0914701F091480186E08083E0918C
:100BC0004501F0914601808180618083E09145017B
:100BD000F0914601808188608083E0914501F09129
:100BE0004601808180688083E0914501F091460153
:100BF00080818F7D8083E091D601F091D7011386AB
:100C000015861486DF011B9633961E92AE17BF071A
:100C1000E1F71092D4011092D50101E0BE016F5F9F
:100C20007F4F8091D6019091D7010E94B403882311
:100C300009F465C067E0CE0101960E940102988523
:100C40008913ECCF8091D001811127C08091D6010A
:100C50009091D7010E94BF02BE016F5F7F4F8091CC
:100C6000D6019091D7010E94A00240E064EB8091F0
:100C7000D6019091D7010E946C028091D60190918B
:100C8000D7010E941902182F8091D6019091D701A7
:100C90000E94BF02112309F4BCC11091D1018981C6
:100CA000803109F4BFC1CE0101960E944203811731
:100CB00018F48091D10109C08981803111F48CE050
:100CC00004C0CE0101960E9442038093D10180911D
:100CD000D4018F5F8093D4018981883209F49CC14B
:100CE00038F4803109F498C1823209F097CF94C169
:100CF0008B3309F491C1823409F090CF8DC10AE0A1
:100D000010E080913101909132019A838983809122
:100D10000401909105019C838B8380910001909147
:100D200001019E838D838091020190910301988738
:100D30008F83AE014F5F5F4F60E87CE080E090E022
:100D40000E94860380912F01909130019A838983BC
:100D50009E838D8398878F83AE014F5F5F4F61E8DD
:100D60007CE080E090E00E9486031A8219821C8257
:100D70001B821E821D8218861F82AE014F5F5F4F4D
:100D800062E87CE080E090E00E9486031A8219828B
:100D90001C821B821E821D8218861F82AE014F5F3D
:100DA0005F4F63E87CE080E090E00E9486031A8257
:100DB00019821C821B821E821D8218861F82AE0130
:100DC0004F5F5F4F64E87CE080E090E00E94860324
:100DD00080913101909132018F352AE1920730F4F0
:100DE0000196909332018093310104C01092320138
:100DF0001092310180912F01909130018F3822E1C2
:100E0000920730F401969093300180932F0104C033
:100E10001092300110922F0180912D0190912E019E
:100E2000893B2BE0920730F4019690932E0180933A
:100E30002D0104C010922E0110922D018091040109
:100E400090910501853C29E0920730F4019690933A
:100E500005018093040104C010930501009304016F
:100E60008091020190910301893E23E0920730F4C2
:100E70000196909303018093020104C01092030134
:100E8000109202018091000190910101873E91052D
:100E900030F40196909301018093000104C01092F8
:100EA00001011092000180912B0190912C019C0175
:100EB0002F5F3F4F30932C0120932B01813A9F40AD
:100EC00008F49EC08091D6019091D7010E94BF0284
:100ED00040E06CEC8091D6019091D7010E946C02A9
:100EE0004091D00164E48091D6019091D7010E9495
:100EF0006C028091D201882309F449C0E091D101AC
:100F0000E950E33040F4F0E0EE0FFF1FE65FFE4FE4
:100F10006081718102C06EEE72E08091D3018823FE
:100F200081F18091D00181112CC08FB7F89480900D
:100F3000270190902801A0902901B0902A018FBF2D
:100F40006B01770FEE08FF088091D6019091D701D1
:100F50000E9419028130D9F02FB7F89480912701AF
:100F600090912801A0912901B0912A012FBF8C19DD
:100F70009D09AE09BF0988159905AA05BB0520F38F
:100F800006C0072E000C880B990B0E94C701E09148
:100F9000D601F091D701138615861486DF011B96C2
:100FA000CF0103961E92A817B907E1F7BE01665F4D
:100FB0007F4FCF010E94B4038823F1F067E0CE0198
:100FC0000A960E9401029989891316C08091D60160
:100FD0009091D7010E94BF02882371F0BE016F5F1C
:100FE0007F4FCE010A960E94F602882329F068E01E
:100FF000CE0101960E94010210922C0110922B0149
:1010000065E070E080E090E00E94C7010E949801D6
:1010100078CE0093D00141CE8091D5018F5F80932F
:10102000D501FCCD1D3008F044CE49CEEE0FFF1F98
:101030000590F491E02D099481E090E0F8940C94EF
:061040002108F894FFCF27
:101046005000C503E003443322115E00BC00770163
:101056000000000029019200C0007601F100CF00D7
:02106600E300A5
:00000001FF
